{
  "address": "0x5D872C94dEB198Cbf9a90403d248768909bDc875",
  "abi": [
    {
      "anonymous": false,
      "inputs": [
        {
          "indexed": true,
          "internalType": "uint256",
          "name": "refId",
          "type": "uint256"
        },
        {
          "indexed": true,
          "internalType": "address",
          "name": "accessor",
          "type": "address"
        },
        {
          "indexed": false,
          "internalType": "string",
          "name": "dataType",
          "type": "string"
        }
      ],
      "name": "DataAccessed",
      "type": "event"
    },
    {
      "anonymous": false,
      "inputs": [
        {
          "indexed": true,
          "internalType": "uint256",
          "name": "refId",
          "type": "uint256"
        },
        {
          "indexed": false,
          "internalType": "string",
          "name": "title",
          "type": "string"
        },
        {
          "indexed": false,
          "internalType": "uint64",
          "name": "deadline",
          "type": "uint64"
        },
        {
          "indexed": false,
          "internalType": "uint256",
          "name": "optionsCount",
          "type": "uint256"
        },
        {
          "indexed": false,
          "internalType": "bool",
          "name": "publicResult",
          "type": "bool"
        }
      ],
      "name": "ReferendumCreated",
      "type": "event"
    },
    {
      "anonymous": false,
      "inputs": [
        {
          "indexed": true,
          "internalType": "uint256",
          "name": "refId",
          "type": "uint256"
        }
      ],
      "name": "ReferendumFinalized",
      "type": "event"
    },
    {
      "anonymous": false,
      "inputs": [
        {
          "indexed": true,
          "internalType": "uint256",
          "name": "refId",
          "type": "uint256"
        },
        {
          "indexed": true,
          "internalType": "address",
          "name": "voter",
          "type": "address"
        }
      ],
      "name": "VoteCast",
      "type": "event"
    },
    {
      "inputs": [
        {
          "internalType": "uint256",
          "name": "refId",
          "type": "uint256"
        },
        {
          "internalType": "externalEuint32",
          "name": "encChoice",
          "type": "bytes32"
        },
        {
          "internalType": "bytes",
          "name": "inputProof",
          "type": "bytes"
        },
        {
          "internalType": "uint256",
          "name": "plainChoice",
          "type": "uint256"
        }
      ],
      "name": "castVote",
      "outputs": [],
      "stateMutability": "nonpayable",
      "type": "function"
    },
    {
      "inputs": [
        {
          "internalType": "string",
          "name": "title",
          "type": "string"
        },
        {
          "internalType": "string",
          "name": "description",
          "type": "string"
        },
        {
          "internalType": "string[]",
          "name": "options",
          "type": "string[]"
        },
        {
          "internalType": "uint64",
          "name": "deadline",
          "type": "uint64"
        },
        {
          "internalType": "bool",
          "name": "publicResult",
          "type": "bool"
        }
      ],
      "name": "createReferendum",
      "outputs": [
        {
          "internalType": "uint256",
          "name": "refId",
          "type": "uint256"
        }
      ],
      "stateMutability": "nonpayable",
      "type": "function"
    },
    {
      "inputs": [
        {
          "internalType": "uint256",
          "name": "refId",
          "type": "uint256"
        }
      ],
      "name": "decryptAllResults",
      "outputs": [
        {
          "internalType": "uint32[]",
          "name": "",
          "type": "uint32[]"
        }
      ],
      "stateMutability": "view",
      "type": "function"
    },
    {
      "inputs": [
        {
          "internalType": "uint256",
          "name": "refId",
          "type": "uint256"
        }
      ],
      "name": "decryptViewTallies",
      "outputs": [
        {
          "internalType": "euint32[]",
          "name": "",
          "type": "bytes32[]"
        }
      ],
      "stateMutability": "nonpayable",
      "type": "function"
    },
    {
      "inputs": [
        {
          "internalType": "uint256",
          "name": "refId",
          "type": "uint256"
        }
      ],
      "name": "finalize",
      "outputs": [],
      "stateMutability": "nonpayable",
      "type": "function"
    },
    {
      "inputs": [
        {
          "internalType": "uint256",
          "name": "refId",
          "type": "uint256"
        }
      ],
      "name": "forceFinalize",
      "outputs": [],
      "stateMutability": "nonpayable",
      "type": "function"
    },
    {
      "inputs": [
        {
          "internalType": "uint256",
          "name": "refId",
          "type": "uint256"
        },
        {
          "internalType": "uint256",
          "name": "optionIndex",
          "type": "uint256"
        }
      ],
      "name": "getEncryptedOptionCount",
      "outputs": [
        {
          "internalType": "euint32",
          "name": "",
          "type": "bytes32"
        }
      ],
      "stateMutability": "view",
      "type": "function"
    },
    {
      "inputs": [
        {
          "internalType": "uint256",
          "name": "refId",
          "type": "uint256"
        }
      ],
      "name": "getEncryptedTallies",
      "outputs": [
        {
          "internalType": "euint32[]",
          "name": "",
          "type": "bytes32[]"
        }
      ],
      "stateMutability": "view",
      "type": "function"
    },
    {
      "inputs": [
        {
          "internalType": "uint256",
          "name": "refId",
          "type": "uint256"
        }
      ],
      "name": "getReferendumMeta",
      "outputs": [
        {
          "internalType": "string",
          "name": "title",
          "type": "string"
        },
        {
          "internalType": "string",
          "name": "description",
          "type": "string"
        },
        {
          "internalType": "string[]",
          "name": "options",
          "type": "string[]"
        },
        {
          "internalType": "uint64",
          "name": "deadline",
          "type": "uint64"
        },
        {
          "internalType": "bool",
          "name": "finalized",
          "type": "bool"
        },
        {
          "internalType": "bool",
          "name": "publicResult",
          "type": "bool"
        }
      ],
      "stateMutability": "view",
      "type": "function"
    },
    {
      "inputs": [],
      "name": "protocolId",
      "outputs": [
        {
          "internalType": "uint256",
          "name": "",
          "type": "uint256"
        }
      ],
      "stateMutability": "pure",
      "type": "function"
    },
    {
      "inputs": [],
      "name": "referendumCount",
      "outputs": [
        {
          "internalType": "uint256",
          "name": "",
          "type": "uint256"
        }
      ],
      "stateMutability": "view",
      "type": "function"
    },
    {
      "inputs": [
        {
          "internalType": "uint256",
          "name": "refId",
          "type": "uint256"
        }
      ],
      "name": "requestDecryptAllResults",
      "outputs": [
        {
          "internalType": "bool",
          "name": "",
          "type": "bool"
        }
      ],
      "stateMutability": "nonpayable",
      "type": "function"
    }
  ],
  "transactionHash": "0x1bb9b629e90157d1169ee6738d26eacd3ed8e7dbfa15bcc647c91b516128f4a2",
  "args": [],
  "numDeployments": 1,
  "solcInputHash": "abd9aa3b998ff01a3653cb922acb56ae",
  "bytecode": "0x608060405234801561000f575f80fd5b5061018a6100ae604080516080810182525f808252602082018190529181018290526060810191909152506040805160808101825273687820221192c5b662b25367f70076a37bc79b6c815273848b0066793bcc60346da1f49049357399b8d595602082015273a02cda4ca3a71d7c46997716f4283aa851c2881291810191909152731364cbbf2cdf5032c47d8226a6f6fbd2afcdacac606082015290565b80517f9e7b61f58c47dc699ac88507c4f5bb9f121c03808c5676a8078fe583e464970080546001600160a01b03199081166001600160a01b039384161790915560208301517f9e7b61f58c47dc699ac88507c4f5bb9f121c03808c5676a8078fe583e46497018054831691841691909117905560408301517f9e7b61f58c47dc699ac88507c4f5bb9f121c03808c5676a8078fe583e46497028054831691841691909117905560608301517f9e7b61f58c47dc699ac88507c4f5bb9f121c03808c5676a8078fe583e46497038054909216921691909117905550565b6120b5806101975f395ff3fe608060405234801561000f575f80fd5b50600436106100cf575f3560e01c80639e4e77bb1161007d578063da1f12ab11610058578063da1f12ab146101b2578063df3a6b4c146101ba578063e7b6ecff146101df575f80fd5b80639e4e77bb1461015c578063c687551d1461017f578063d1cef6781461019f575f80fd5b80634f1e0056116100ad5780634f1e0056146101165780635fd1a7c7146101295780636e2553c71461013c575f80fd5b806305261aea146100d357806329a9a80f146100e85780633a42ee311461010e575b5f80fd5b6100e66100e13660046119fe565b6101f2565b005b6100fb6100f6366004611a15565b61034e565b6040519081526020015b60405180910390f35b6003546100fb565b6100fb610124366004611b11565b610431565b6100e6610137366004611c32565b6106ab565b61014f61014a3660046119fe565b6109e7565b6040516101059190611cb2565b61016f61016a3660046119fe565b610b9f565b6040519015158152602001610105565b61019261018d3660046119fe565b610d3a565b6040516101059190611cfb565b6101926101ad3660046119fe565b610e32565b6127116100fb565b6101cd6101c83660046119fe565b610ff9565b60405161010596959493929190611d75565b6100e66101ed3660046119fe565b6112d5565b60035481106102385760405162461bcd60e51b815260206004820152600d60248201526c1a5b9d985b1a59081c99599259609a1b60448201526064015b60405180910390fd5b5f6003828154811061024c5761024c611e21565b5f9182526020909120600790910201600481015490915067ffffffffffffffff164210156102bc5760405162461bcd60e51b815260206004820152600960248201527f6e6f7420656e6465640000000000000000000000000000000000000000000000604482015260640161022f565b600681015460ff16156103115760405162461bcd60e51b815260206004820152601160248201527f616c72656164792066696e616c697a6564000000000000000000000000000000604482015260640161022f565b60068101805460ff1916600117905560405182907fbd87ff6bc20b2b8a35979b5cbdcf569bcc66e10d771379ed2cbbeacc340f8520905f90a25050565b6003545f9083106103915760405162461bcd60e51b815260206004820152600d60248201526c1a5b9d985b1a59081c99599259609a1b604482015260640161022f565b5f600384815481106103a5576103a5611e21565b905f5260205f2090600702019050806003018054905083106104095760405162461bcd60e51b815260206004820152600960248201527f62616420696e6465780000000000000000000000000000000000000000000000604482015260640161022f565b80600501838154811061041e5761041e611e21565b905f5260205f2001549150505b92915050565b5f600284511015801561044657506010845111155b6104925760405162461bcd60e51b815260206004820152601660248201527f696e76616c6964206f7074696f6e73206c656e67746800000000000000000000604482015260640161022f565b428367ffffffffffffffff16116104eb5760405162461bcd60e51b815260206004820152601060248201527f646561646c696e6520696e207061737400000000000000000000000000000000604482015260640161022f565b5f845167ffffffffffffffff81111561050657610506611a35565b60405190808252806020026020018201604052801561052f578160200160208202803683370190505b5090505f5b855181101561056b576105465f611391565b82828151811061055857610558611e21565b6020908102919091010152600101610534565b5060038054600181018083555f8381529194509091908490811061059157610591611e21565b5f91825260209091206007909102018381559050600181016105b38982611eb9565b50600281016105c28882611eb9565b5085516105d890600383019060208901906118ff565b5060048101805467ffffffffffffffff191667ffffffffffffffff8716179055815161060d906005830190602085019061194f565b5060068101805461ff001916610100861515021790555f5b60058201548110156106605761065782600501828154811061064957610649611e21565b905f5260205f2001546113a3565b50600101610625565b50827fc08fd465fd4e94e1f2457f1407214d811d8ea942193d2bd4874841d38db4cd0d89878951886040516106989493929190611f79565b60405180910390a2505095945050505050565b60035485106106ec5760405162461bcd60e51b815260206004820152600d60248201526c1a5b9d985b1a59081c99599259609a1b604482015260640161022f565b5f6003868154811061070057610700611e21565b5f9182526020909120600790910201600481015490915067ffffffffffffffff16421061076f5760405162461bcd60e51b815260206004820152600d60248201527f766f74696e6720636c6f73656400000000000000000000000000000000000000604482015260640161022f565b5f8681526020818152604080832033845290915290205460ff16156107d65760405162461bcd60e51b815260206004820152600d60248201527f616c726561647920766f74656400000000000000000000000000000000000000604482015260640161022f565b5f6108168686868080601f0160208091040260200160405190810160405280939291908181526020018383808284375f920191909152506113b292505050565b60038301549091505f5b818110156108ef575f61083b8461083684611391565b6113c6565b90505f61085a8261084c6001611391565b6108555f611391565b6113f4565b905061088386600501848154811061087457610874611e21565b905f5260205f20015482611408565b86600501848154811061089857610898611e21565b905f5260205f2001819055506108bc86600501848154811061064957610649611e21565b506108e48660050184815481106108d5576108d5611e21565b905f5260205f20015433611436565b505050600101610820565b50600383015484106109435760405162461bcd60e51b815260206004820152601460248201527f696e76616c696420706c61696e2063686f696365000000000000000000000000604482015260640161022f565b5f888152600160208181526040808420888552909152822080549192909161097290849063ffffffff16611fc7565b825463ffffffff9182166101009390930a9283029190920219909116179055505f88815260208181526040808320338085529252808320805460ff191660011790555190918a917ff1003b73c437642c0460aee9cd9628b0b8c447b66e6c7c905531b9c644214a119190a35050505050505050565b6003546060908210610a2b5760405162461bcd60e51b815260206004820152600d60248201526c1a5b9d985b1a59081c99599259609a1b604482015260640161022f565b5f60038381548110610a3f57610a3f611e21565b5f9182526020909120600790910201600681015490915060ff16610aa55760405162461bcd60e51b815260206004820152601860248201527f7265666572656e64756d206e6f742066696e616c697a65640000000000000000604482015260640161022f565b6006810154610100900460ff16610aeb5760405162461bcd60e51b815260206004820152600a6024820152696e6f74207075626c696360b01b604482015260640161022f565b60038101545f9067ffffffffffffffff811115610b0a57610b0a611a35565b604051908082528060200260200182016040528015610b33578160200160208202803683370190505b5090505f5b6003830154811015610b97575f858152600160209081526040808320848452909152902054825163ffffffff90911690839083908110610b7a57610b7a611e21565b63ffffffff90921660209283029190910190910152600101610b38565b509392505050565b6003545f908210610be25760405162461bcd60e51b815260206004820152600d60248201526c1a5b9d985b1a59081c99599259609a1b604482015260640161022f565b5f60038381548110610bf657610bf6611e21565b5f9182526020909120600790910201600681015490915060ff16610c5c5760405162461bcd60e51b815260206004820152601860248201527f7265666572656e64756d206e6f742066696e616c697a65640000000000000000604482015260640161022f565b6006810154610100900460ff16610ca25760405162461bcd60e51b815260206004820152600a6024820152696e6f74207075626c696360b01b604482015260640161022f565b5f838152600260205260408120805460019290610cc0908490611feb565b9091555050604051339084907f46b34e543704665714d4a89f96fd4c32ef5734b3787e466bc6b61fd09c8a528790610d299060208082526011908201527f64656372797074416c6c526573756c7473000000000000000000000000000000604082015260600190565b60405180910390a350600192915050565b6003546060908210610d7e5760405162461bcd60e51b815260206004820152600d60248201526c1a5b9d985b1a59081c99599259609a1b604482015260640161022f565b33610dbc5760405162461bcd60e51b815260206004820152600e60248201526d34b73b30b634b21031b0b63632b960911b604482015260640161022f565b60038281548110610dcf57610dcf611e21565b905f5260205f209060070201600501805480602002602001604051908101604052809291908181526020018280548015610e2657602002820191905f5260205f20905b815481526020019060010190808311610e12575b50505050509050919050565b6003546060908210610e765760405162461bcd60e51b815260206004820152600d60248201526c1a5b9d985b1a59081c99599259609a1b604482015260640161022f565b33610eb45760405162461bcd60e51b815260206004820152600e60248201526d34b73b30b634b21031b0b63632b960911b604482015260640161022f565b5f60038381548110610ec857610ec8611e21565b5f9182526020909120600790910201600681015490915060ff16610f2e5760405162461bcd60e51b815260206004820152601860248201527f7265666572656e64756d206e6f742066696e616c697a65640000000000000000604482015260640161022f565b336001600160a01b0316837f46b34e543704665714d4a89f96fd4c32ef5734b3787e466bc6b61fd09c8a5287604051610f989060208082526012908201527f646563727970745669657754616c6c6965730000000000000000000000000000604082015260600190565b60405180910390a380600501805480602002602001604051908101604052809291908181526020018280548015610fec57602002820191905f5260205f20905b815481526020019060010190808311610fd8575b5050505050915050919050565b60608060605f805f60038054905087106110455760405162461bcd60e51b815260206004820152600d60248201526c1a5b9d985b1a59081c99599259609a1b604482015260640161022f565b336110835760405162461bcd60e51b815260206004820152600e60248201526d34b73b30b634b21031b0b63632b960911b604482015260640161022f565b5f6003888154811061109757611097611e21565b5f918252602090912060079091020160048101546006820154600183018054939450926002850192600386019267ffffffffffffffff9091169160ff808316926101009004169086906110e990611e35565b80601f016020809104026020016040519081016040528092919081815260200182805461111590611e35565b80156111605780601f1061113757610100808354040283529160200191611160565b820191905f5260205f20905b81548152906001019060200180831161114357829003601f168201915b5050505050955084805461117390611e35565b80601f016020809104026020016040519081016040528092919081815260200182805461119f90611e35565b80156111ea5780601f106111c1576101008083540402835291602001916111ea565b820191905f5260205f20905b8154815290600101906020018083116111cd57829003601f168201915b5050505050945083805480602002602001604051908101604052809291908181526020015f905b828210156112b9578382905f5260205f2001805461122e90611e35565b80601f016020809104026020016040519081016040528092919081815260200182805461125a90611e35565b80156112a55780601f1061127c576101008083540402835291602001916112a5565b820191905f5260205f20905b81548152906001019060200180831161128857829003601f168201915b505050505081526020019060010190611211565b5050505093509650965096509650965096505091939550919395565b60035481106113165760405162461bcd60e51b815260206004820152600d60248201526c1a5b9d985b1a59081c99599259609a1b604482015260640161022f565b5f6003828154811061132a5761132a611e21565b5f9182526020909120600790910201600681015490915060ff16156103115760405162461bcd60e51b815260206004820152601160248201527f616c72656164792066696e616c697a6564000000000000000000000000000000604482015260640161022f565b5f61042b8263ffffffff166004611448565b5f6113ae82306114fd565b5090565b5f6113bf83836004611586565b9392505050565b5f826113d8576113d55f611391565b92505b816113e9576113e65f611391565b91505b6113bf83835f6116a6565b5f6114008484846117a1565b949350505050565b5f8261141a576114175f611391565b92505b8161142b576114285f611391565b91505b6113bf83835f61184a565b5f61144183836114fd565b5090919050565b7f9e7b61f58c47dc699ac88507c4f5bb9f121c03808c5676a8078fe583e464970154604051639cd07acb60e01b81525f917f9e7b61f58c47dc699ac88507c4f5bb9f121c03808c5676a8078fe583e4649700916001600160a01b0390911690639cd07acb906114bd908790879060040161201e565b6020604051808303815f875af11580156114d9573d5f803e3d5ffd5b505050506040513d601f19601f820116820180604052508101906114009190612032565b5f7f9e7b61f58c47dc699ac88507c4f5bb9f121c03808c5676a8078fe583e46497008054604051635ca4b5b160e11b8152600481018690526001600160a01b03858116602483015292935091169063b9496b62906044015f604051808303815f87803b15801561156b575f80fd5b505af115801561157d573d5f803e3d5ffd5b50505050505050565b7f9e7b61f58c47dc699ac88507c4f5bb9f121c03808c5676a8078fe583e46497015460405163196d0b9b60e01b81525f917f9e7b61f58c47dc699ac88507c4f5bb9f121c03808c5676a8078fe583e4649700916001600160a01b039091169063196d0b9b906115ff908890339089908990600401612049565b6020604051808303815f875af115801561161b573d5f803e3d5ffd5b505050506040513d601f19601f8201168201806040525081019061163f9190612032565b8154604051630f8e573b60e21b8152600481018390523360248201529193506001600160a01b031690633e395cec906044015f604051808303815f87803b158015611688575f80fd5b505af115801561169a573d5f803e3d5ffd5b50505050509392505050565b5f8082156116b95750600160f81b6116bc565b505f5b7f9e7b61f58c47dc699ac88507c4f5bb9f121c03808c5676a8078fe583e46497015460405163f77f3f1d60e01b815260048101879052602481018690527fff00000000000000000000000000000000000000000000000000000000000000831660448201527f9e7b61f58c47dc699ac88507c4f5bb9f121c03808c5676a8078fe583e4649700916001600160a01b03169063f77f3f1d906064015b6020604051808303815f875af1158015611773573d5f803e3d5ffd5b505050506040513d601f19601f820116820180604052508101906117979190612032565b9695505050505050565b5f807f9e7b61f58c47dc699ac88507c4f5bb9f121c03808c5676a8078fe583e46497006001810154604051637702dcff60e01b81526004810188905260248101879052604481018690529192506001600160a01b031690637702dcff906064016020604051808303815f875af115801561181d573d5f803e3d5ffd5b505050506040513d601f19601f820116820180604052508101906118419190612032565b95945050505050565b5f80821561185d5750600160f81b611860565b505f5b7f9e7b61f58c47dc699ac88507c4f5bb9f121c03808c5676a8078fe583e46497015460405163022f65e760e31b815260048101879052602481018690527fff00000000000000000000000000000000000000000000000000000000000000831660448201527f9e7b61f58c47dc699ac88507c4f5bb9f121c03808c5676a8078fe583e4649700916001600160a01b03169063117b2f3890606401611757565b828054828255905f5260205f20908101928215611943579160200282015b8281111561194357825182906119339082611eb9565b509160200191906001019061191d565b506113ae929150611994565b828054828255905f5260205f20908101928215611988579160200282015b8281111561198857825182559160200191906001019061196d565b506113ae9291506119b0565b808211156113ae575f6119a782826119c4565b50600101611994565b5b808211156113ae575f81556001016119b1565b5080546119d090611e35565b5f825580601f106119df575050565b601f0160209004905f5260205f20908101906119fb91906119b0565b50565b5f60208284031215611a0e575f80fd5b5035919050565b5f8060408385031215611a26575f80fd5b50508035926020909101359150565b634e487b7160e01b5f52604160045260245ffd5b604051601f8201601f1916810167ffffffffffffffff81118282101715611a7257611a72611a35565b604052919050565b5f82601f830112611a89575f80fd5b813567ffffffffffffffff811115611aa357611aa3611a35565b611ab6601f8201601f1916602001611a49565b818152846020838601011115611aca575f80fd5b816020850160208301375f918101602001919091529392505050565b803567ffffffffffffffff81168114611afd575f80fd5b919050565b80358015158114611afd575f80fd5b5f805f805f60a08688031215611b25575f80fd5b853567ffffffffffffffff80821115611b3c575f80fd5b611b4889838a01611a7a565b9650602091508188013581811115611b5e575f80fd5b611b6a8a828b01611a7a565b965050604088013581811115611b7e575f80fd5b8801601f81018a13611b8e575f80fd5b803582811115611ba057611ba0611a35565b8060051b611baf858201611a49565b918252828101850191858101908d841115611bc8575f80fd5b86850192505b83831015611c0257823586811115611be4575f80fd5b611bf28f8983890101611a7a565b8352509186019190860190611bce565b80995050505050505050611c1860608701611ae6565b9150611c2660808701611b02565b90509295509295909350565b5f805f805f60808688031215611c46575f80fd5b8535945060208601359350604086013567ffffffffffffffff80821115611c6b575f80fd5b818801915088601f830112611c7e575f80fd5b813581811115611c8c575f80fd5b896020828501011115611c9d575f80fd5b96999598505060200195606001359392505050565b602080825282518282018190525f9190848201906040850190845b81811015611cef57835163ffffffff1683529284019291840191600101611ccd565b50909695505050505050565b602080825282518282018190525f9190848201906040850190845b81811015611cef57835183529284019291840191600101611d16565b5f81518084525f5b81811015611d5657602081850181015186830182015201611d3a565b505f602082860101526020601f19601f83011685010191505092915050565b60c081525f611d8760c0830189611d32565b602083820381850152611d9a828a611d32565b915083820360408501528188518084528284019150828160051b850101838b015f5b83811015611dea57601f19878403018552611dd8838351611d32565b94860194925090850190600101611dbc565b505067ffffffffffffffff8a1660608801529450611e089350505050565b921515608082015290151560a090910152949350505050565b634e487b7160e01b5f52603260045260245ffd5b600181811c90821680611e4957607f821691505b602082108103611e6757634e487b7160e01b5f52602260045260245ffd5b50919050565b601f821115611eb457805f5260205f20601f840160051c81016020851015611e925750805b601f840160051c820191505b81811015611eb1575f8155600101611e9e565b50505b505050565b815167ffffffffffffffff811115611ed357611ed3611a35565b611ee781611ee18454611e35565b84611e6d565b602080601f831160018114611f1a575f8415611f035750858301515b5f19600386901b1c1916600185901b178555611f71565b5f85815260208120601f198616915b82811015611f4857888601518255948401946001909101908401611f29565b5085821015611f6557878501515f19600388901b60f8161c191681555b505060018460011b0185555b505050505050565b608081525f611f8b6080830187611d32565b67ffffffffffffffff9590951660208301525060408101929092521515606090910152919050565b634e487b7160e01b5f52601160045260245ffd5b63ffffffff818116838216019080821115611fe457611fe4611fb3565b5092915050565b8082018082111561042b5761042b611fb3565b6054811061201a57634e487b7160e01b5f52602160045260245ffd5b9052565b828152604081016113bf6020830184611ffe565b5f60208284031215612042575f80fd5b5051919050565b8481526001600160a01b0384166020820152608060408201525f6120706080830185611d32565b90506118416060830184611ffe56fea2646970667358221220ef514925a89f61c2bcc24c27ca8caef5d73a5de62507f61178baf39a7a42de0864736f6c63430008180033",
  "devdoc": {
    "kind": "dev",
    "methods": {
      "castVote(uint256,bytes32,bytes,uint256)": {
        "params": {
          "encChoice": "",
          "inputProof": "",
          "plainChoice": "",
          "refId": " ID"
        }
      }
    },
    "stateVariables": {
      "_decryptionAccessCount": {
        "details": ""
      },
      "_hasVoted": {
        "details": "/"
      },
      "_realTallies": {
        "details": ""
      },
      "_referendums": {
        "details": ""
      }
    },
    "title": "CryptoReferendum - FHEVM /",
    "version": 1
  },
  "userdoc": {
    "kind": "user",
    "methods": {
      "castVote(uint256,bytes32,bytes,uint256)": {
        "notice": "0..options-1"
      },
      "createReferendum(string,string,string[],uint64,bool)": {
        "notice": ""
      },
      "decryptAllResults(uint256)": {
        "notice": ""
      },
      "decryptViewTallies(uint256)": {
        "notice": ""
      },
      "finalize(uint256)": {
        "notice": ""
      },
      "forceFinalize(uint256)": {
        "notice": ""
      },
      "getEncryptedOptionCount(uint256,uint256)": {
        "notice": ""
      },
      "getEncryptedTallies(uint256)": {
        "notice": ""
      },
      "getReferendumMeta(uint256)": {
        "notice": ""
      },
      "referendumCount()": {
        "notice": ""
      },
      "requestDecryptAllResults(uint256)": {
        "notice": " view "
      }
    },
    "notice": " FHE ",
    "version": 1
  },
  "storageLayout": {
    "storage": [
      {
        "astId": 39067,
        "contract": "contracts/CryptoReferendum.sol:CryptoReferendum",
        "label": "_hasVoted",
        "offset": 0,
        "slot": "0",
        "type": "t_mapping(t_uint256,t_mapping(t_address,t_bool))"
      },
      {
        "astId": 39074,
        "contract": "contracts/CryptoReferendum.sol:CryptoReferendum",
        "label": "_realTallies",
        "offset": 0,
        "slot": "1",
        "type": "t_mapping(t_uint256,t_mapping(t_uint256,t_uint32))"
      },
      {
        "astId": 39079,
        "contract": "contracts/CryptoReferendum.sol:CryptoReferendum",
        "label": "_decryptionAccessCount",
        "offset": 0,
        "slot": "2",
        "type": "t_mapping(t_uint256,t_uint256)"
      },
      {
        "astId": 39084,
        "contract": "contracts/CryptoReferendum.sol:CryptoReferendum",
        "label": "_referendums",
        "offset": 0,
        "slot": "3",
        "type": "t_array(t_struct(Referendum)39060_storage)dyn_storage"
      }
    ],
    "types": {
      "t_address": {
        "encoding": "inplace",
        "label": "address",
        "numberOfBytes": "20"
      },
      "t_array(t_string_storage)dyn_storage": {
        "base": "t_string_storage",
        "encoding": "dynamic_array",
        "label": "string[]",
        "numberOfBytes": "32"
      },
      "t_array(t_struct(Referendum)39060_storage)dyn_storage": {
        "base": "t_struct(Referendum)39060_storage",
        "encoding": "dynamic_array",
        "label": "struct CryptoReferendum.Referendum[]",
        "numberOfBytes": "32"
      },
      "t_array(t_userDefinedValueType(euint32)39879)dyn_storage": {
        "base": "t_userDefinedValueType(euint32)39879",
        "encoding": "dynamic_array",
        "label": "euint32[]",
        "numberOfBytes": "32"
      },
      "t_bool": {
        "encoding": "inplace",
        "label": "bool",
        "numberOfBytes": "1"
      },
      "t_mapping(t_address,t_bool)": {
        "encoding": "mapping",
        "key": "t_address",
        "label": "mapping(address => bool)",
        "numberOfBytes": "32",
        "value": "t_bool"
      },
      "t_mapping(t_uint256,t_mapping(t_address,t_bool))": {
        "encoding": "mapping",
        "key": "t_uint256",
        "label": "mapping(uint256 => mapping(address => bool))",
        "numberOfBytes": "32",
        "value": "t_mapping(t_address,t_bool)"
      },
      "t_mapping(t_uint256,t_mapping(t_uint256,t_uint32))": {
        "encoding": "mapping",
        "key": "t_uint256",
        "label": "mapping(uint256 => mapping(uint256 => uint32))",
        "numberOfBytes": "32",
        "value": "t_mapping(t_uint256,t_uint32)"
      },
      "t_mapping(t_uint256,t_uint256)": {
        "encoding": "mapping",
        "key": "t_uint256",
        "label": "mapping(uint256 => uint256)",
        "numberOfBytes": "32",
        "value": "t_uint256"
      },
      "t_mapping(t_uint256,t_uint32)": {
        "encoding": "mapping",
        "key": "t_uint256",
        "label": "mapping(uint256 => uint32)",
        "numberOfBytes": "32",
        "value": "t_uint32"
      },
      "t_string_storage": {
        "encoding": "bytes",
        "label": "string",
        "numberOfBytes": "32"
      },
      "t_struct(Referendum)39060_storage": {
        "encoding": "inplace",
        "label": "struct CryptoReferendum.Referendum",
        "members": [
          {
            "astId": 39042,
            "contract": "contracts/CryptoReferendum.sol:CryptoReferendum",
            "label": "refId",
            "offset": 0,
            "slot": "0",
            "type": "t_uint256"
          },
          {
            "astId": 39044,
            "contract": "contracts/CryptoReferendum.sol:CryptoReferendum",
            "label": "title",
            "offset": 0,
            "slot": "1",
            "type": "t_string_storage"
          },
          {
            "astId": 39046,
            "contract": "contracts/CryptoReferendum.sol:CryptoReferendum",
            "label": "description",
            "offset": 0,
            "slot": "2",
            "type": "t_string_storage"
          },
          {
            "astId": 39049,
            "contract": "contracts/CryptoReferendum.sol:CryptoReferendum",
            "label": "options",
            "offset": 0,
            "slot": "3",
            "type": "t_array(t_string_storage)dyn_storage"
          },
          {
            "astId": 39051,
            "contract": "contracts/CryptoReferendum.sol:CryptoReferendum",
            "label": "deadline",
            "offset": 0,
            "slot": "4",
            "type": "t_uint64"
          },
          {
            "astId": 39055,
            "contract": "contracts/CryptoReferendum.sol:CryptoReferendum",
            "label": "encryptedTallies",
            "offset": 0,
            "slot": "5",
            "type": "t_array(t_userDefinedValueType(euint32)39879)dyn_storage"
          },
          {
            "astId": 39057,
            "contract": "contracts/CryptoReferendum.sol:CryptoReferendum",
            "label": "finalized",
            "offset": 0,
            "slot": "6",
            "type": "t_bool"
          },
          {
            "astId": 39059,
            "contract": "contracts/CryptoReferendum.sol:CryptoReferendum",
            "label": "publicResult",
            "offset": 1,
            "slot": "6",
            "type": "t_bool"
          }
        ],
        "numberOfBytes": "224"
      },
      "t_uint256": {
        "encoding": "inplace",
        "label": "uint256",
        "numberOfBytes": "32"
      },
      "t_uint32": {
        "encoding": "inplace",
        "label": "uint32",
        "numberOfBytes": "4"
      },
      "t_uint64": {
        "encoding": "inplace",
        "label": "uint64",
        "numberOfBytes": "8"
      },
      "t_userDefinedValueType(euint32)39879": {
        "encoding": "inplace",
        "label": "euint32",
        "numberOfBytes": "32"
      }
    }
  }
}